00000001LZB1880SC03002816QQ74550242720191213162106RODOVIA BR 232 km 77,1                                                                              117200060072DERPE4924 000000000000                                          00000000000009666020191127065L06214       DEV D2R-PA     Perkons        LOMBADA   03002816.JPG        NNNNNNNN
00000002JRI1436SE03002817QQ74550235720191213172135ROD. PE 60 km 0,1 CABO DE SANTO AGOSTINHO - PE                                                      117200040050DERPE4687 000000000000                                          000000000000096660201911120435027         DEV D2R-PA     Perkons        LOMBADA   03002817.JPG        NNNNNNNN
00000003QFQ1929PB03002822QQ74550253920191213161300RODOVIA BR 232, km 91                                                                               117200060068DERPE5365 000000000000                                          00000000000009666020191127061L06340       DEV D2R-PA     Perkons        LOMBADA   03002822.JPG        NNNNNNNN
00000004QFA0655PB03002824QQ74550262720191215172737RODOVIA BR-232 km 35,5 VITORIA S. ANTAO                                                             117200060068DERPE4431 000000000000                                          000000000000096660201911200614597         DEV DPA        Perkons        LOMBADA   03002824.JPG        NNNNNNNN
00000005PVX1407MG03002825QQ74550253920191216124508RODOVIA BR 232, km 91                                                                               117200060075DERPE5365 000000000000                                          00000000000009666020191127068L06340       DEV D2R-PA     Perkons        LOMBADA   03002825.JPG        NNNNNNNN
00000006QSD3447PB03002826QQ74710233720191214122816RODOVIA BR 232 km 100,5 - BEZERROS                                                                  117200060098DERPE4426 000000000000                                          000000000000096660201911260914594         DEV D2R-PA     Perkons        LOMBADA   03002826.JPG        NNNNNNNN
00000007PVZ2911MG03002828QQ74550233720191213071805RODOVIA BR-232 KM 113,08 - ENCRUZILHADA DE SAO JOAO                                                 117200060077DERPE4413 000000000000                                          000000000000096660201911260704430         DEV D2R-PA     Perkons        LOMBADA   03002828.JPG        NNNNNNNN
00000008GZG4064AL03002830QQ74550233720191214134509RODOVIA BR-232 KM 113,08 - ENCRUZILHADA DE SAO JOAO                                                 117200060068DERPE4413 000000000000                                          000000000000096660201911260614430         DEV D2R-PA     Perkons        LOMBADA   03002830.JPG        NNNNNNNN
00000009QQU0912MG03002831QQ74550233720191214091600RODOVIA BR 232 km 100,5 - BEZERROS                                                                  117200060068DERPE4426 000000000000                                          000000000000096660201911260614594         DEV D2R-PA     Perkons        LOMBADA   03002831.JPG        NNNNNNNN
00000010PMI9916CE03002832QQ74550253920191213094542RODOVIA BR 232, km 91                                                                               117200060068DERPE5365 000000000000                                          00000000000009666020191127061L06340       DEV D2R-PA     Perkons        LOMBADA   03002832.JPG        NNNNNNNN
00000011QQA6470MG03002835QQ74710253920191211145339RODOVIA BR 232, km 91                                                                               117200060104DERPE5365 000000000000                                          00000000000009666020191127097L06340       DEV D2R-PA     Perkons        LOMBADA   03002835.JPG        NNNNNNNN
00000012FDX6959AL03002836QQ74630235720191215153122ROD. PE 60 km 0,1 CABO DE SANTO AGOSTINHO - PE                                                      117200040058DERPE4687 000000000000                                          000000000000096660201911120515027         DEV D2R-PA     Perkons        LOMBADA   03002836.JPG        NNNNNNNN
00000013QFO3217PB03002837QQ74550253920191213141520RODOVIA BR 232, km 91                                                                               117200060070DERPE5365 000000000000                                          00000000000009666020191127063L06340       DEV D2R-PA     Perkons        LOMBADA   03002837.JPG        NNNNNNNN
00000014KWL4745BA03002840QQ74710233720191216124537RODOVIA BR 232 km 100,5 - BEZERROS                                                                  117200060099DERPE4426 000000000000                                          000000000000096660201911260924594         DEV D2R-PA     Perkons        LOMBADA   03002840.JPG        NNNNNNNN
00000015QWS7576MG03002841QQ74550055820191216111333ROD. PE 60 km 64 EM FRENTE AO INST. CHICO MENDES                                                    117200060070DERPE4406 000000000000                                          000000000000096660201911130634309         DEV D2R-PA     Perkons        LOMBADA   03002841.JPG        NNNNNNNN
00000016LOU0527RJ03002843QQ74550252520191213172259RODOVIA BR-232 km 58,9 POMBOS                                                                       117200060074DERPE4429 000000000000                                          000000000000096660201911270674656         DEV D2R-PA     Perkons        LOMBADA   03002843.JPG        NNNNNNNN
00000017RAG9275SC03002845QQ74550242720191214111157RODOVIA BR 232 km 77,1                                                                              117200060068DERPE4924 000000000000                                          00000000000009666020191127061L06214       DEV D2R-PA     Perkons        LOMBADA   03002845.JPG        NNNNNNNN
00000018QQU0928MG03002848QQ74550253920191211145052RODOVIA BR 232, km 91                                                                               117200060078DERPE5365 000000000000                                          00000000000009666020191127071L06340       DEV D2R-PA     Perkons        LOMBADA   03002848.JPG        NNNNNNNN
00000019PKU9852BA03002851QQ74550235720191213173854RODOVIA PE-024, km 6,2                                                                              117200040051DERPE4685 000000000000                                          000000000000096660201912100446003         DEV DPO        Perkons        LOMBADA   03002851.JPG        NNNNNNNN
00000020MUX3174AL03002852QQ74550235720191215113902ROD. PE 60 km 0,1 CABO DE SANTO AGOSTINHO - PE                                                      117200040049DERPE4687 000000000000                                          000000000000096660201911120425027         DEV D2R-PA     Perkons        LOMBADA   03002852.JPG        NNNNNNNN
00000021PKS1240BA03002853QQ74550242720191215153607RODOVIA BR 232 km 77,1                                                                              117200060069DERPE4924 000000000000                                          00000000000009666020191127062L06214       DEV D2R-PA     Perkons        LOMBADA   03002853.JPG        NNNNNNNN
00000022OFY5723PB03002856QQ74550233720191213125954RODOVIA BR-232 KM 113,08 - ENCRUZILHADA DE SAO JOAO                                                 117200060071DERPE4413 000000000000                                          000000000000096660201911260644430         DEV D2R-PA     Perkons        LOMBADA   03002856.JPG        NNNNNNNN
00000023FFW2669SP03002857QQ74550233720191213124134RODOVIA BR-232 KM 113,08 - ENCRUZILHADA DE SAO JOAO                                                 117200060077DERPE4413 000000000000                                          000000000000096660201911260704430         DEV D2R-PA     Perkons        LOMBADA   03002857.JPG        NNNNNNNN
00000024QPS8580MG03002858QQ74550233720191216072156RODOVIA BR 232 km 100,5 - BEZERROS                                                                  117200060068DERPE4426 000000000000                                          000000000000096660201911260614594         DEV D2R-PA     Perkons        LOMBADA   03002858.JPG        NNNNNNNN
00000025QUF4473MG03002859QQ74550235720191214072701ROD. PE 60 km 0,1 CABO DE SANTO AGOSTINHO - PE                                                      117200040051DERPE4687 000000000000                                          000000000000096660201911120445027         DEV D2R-PA     Perkons        LOMBADA   03002859.JPG        NNNNNNNN
00000026QUN3259MG03002861QQ74550235720191214055152ROD. PE 60 km 0,1 CABO DE SANTO AGOSTINHO - PE                                                      117200040050DERPE4687 000000000000                                          000000000000096660201911120435027         DEV D2R-PA     Perkons        LOMBADA   03002861.JPG        NNNNNNNN
00000027AUI1287AL03002862QQ74550235720191212081419RODOVIA PE-024 km 1,4                                                                               117200040049DERPE4684 000000000000                                          000000000000096660201912100426014         DEV DPO        Perkons        LOMBADA   03002862.JPG        NNNNNNNN
00000028PKT4333BA03002863QQ74550252520191213095132RODOVIA BR-232 km 58,9 POMBOS                                                                       117200060072DERPE4429 000000000000                                          000000000000096660201911270654656         DEV D2R-PA     Perkons        LOMBADA   03002863.JPG        NNNNNNNN
00000029ORJ0605AL03002864QQ74550235720191213152119ROD. PE 60 km 0,1 CABO DE SANTO AGOSTINHO - PE                                                      117200040050DERPE4687 000000000000                                          000000000000096660201911120435027         DEV D2R-PA     Perkons        LOMBADA   03002864.JPG        NNNNNNNN
00000030KLI4G17PB03002865QQ74550253920191214090337RODOVIA BR 232, km 91                                                                               117200060070DERPE5365 000000000000                                          00000000000009666020191127063L06340       DEV D2R-PA     Perkons        LOMBADA   03002865.JPG        NNNNNNNN
00000031LSA5052SE03002866QQ74550242720191214134519RODOVIA BR 232 km 77,1                                                                              117200060072DERPE4924 000000000000                                          00000000000009666020191127065L06214       DEV D2R-PA     Perkons        LOMBADA   03002866.JPG        NNNNNNNN
00000032OGA0B85PB03002868QQ74630242720191214122423RODOVIA BR 232 km 77,1                                                                              117200060097DERPE4924 000000000000                                          00000000000009666020191127090L06214       DEV D2R-PA     Perkons        LOMBADA   03002868.JPG        NNNNNNNN
00000033QQB3862MG03002870QQ74710253920191213090501RODOVIA BR 232, km 91                                                                               117200060105DERPE5365 000000000000                                          00000000000009666020191127098L06340       DEV D2R-PA     Perkons        LOMBADA   03002870.JPG        NNNNNNNN
00000034QWU3215MG03002871QQ74550253920191216073826RODOVIA BR 232, km 91                                                                               117200060077DERPE5365 000000000000                                          00000000000009666020191127070L06340       DEV D2R-PA     Perkons        LOMBADA   03002871.JPG        NNNNNNNN
00000035QUH2690MG03002872QQ74550235720191215131751ROD. PE 60 km 0,1 CABO DE SANTO AGOSTINHO - PE                                                      117200040048DERPE4687 000000000000                                          000000000000096660201911120415027         DEV D2R-PA     Perkons        LOMBADA   03002872.JPG        NNNNNNNN
00000036NAA5394AC03002874QQ74550253920191216130211RODOVIA BR 232, km 91                                                                               117200060076DERPE5365 000000000000                                          00000000000009666020191127069L06340       DEV D2R-PA     Perkons        LOMBADA   03002874.JPG        NNNNNNNN
00000037QFE1001PB03002876QQ74550233720191213170845RODOVIA BR-232 km 113,4 - ENCRUZILHADA DE SAO JOAO                                                  117200060077DERPE4414 000000000000                                          000000000000096660201911260704431         DEV D2R-PA     Perkons        LOMBADA   03002876.JPG        NNNNNNNN
00000038GYW9474MG03002878QQ74630253920191216080623RODOVIA BR 232, km 91                                                                               117200060089DERPE5365 000000000000                                          00000000000009666020191127082L06340       DEV D2R-PA     Perkons        LOMBADA   03002878.JPG        NNNNNNNN
00000039CQT2710SP03002879QQ74550253920191215154723RODOVIA BR 232, km 91                                                                               117200060069DERPE5365 000000000000                                          00000000000009666020191127062L06340       DEV D2R-PA     Perkons        LOMBADA   03002879.JPG        NNNNNNNN
00000040FSN0362BA03002881QQ74550233720191213155241RODOVIA BR-232 km 113,4 - ENCRUZILHADA DE SAO JOAO                                                  117200060070DERPE4414 000000000000                                          000000000000096660201911260634431         DEV D2R-PA     Perkons        LOMBADA   03002881.JPG        NNNNNNNN
00000041DNH9328SP03002882QQ74630235720191214123815ROD. PE 60 km 0,1 CABO DE SANTO AGOSTINHO - PE                                                      117200040057DERPE4687 000000000000                                          000000000000096660201911120505027         DEV D2R-PA     Perkons        LOMBADA   03002882.JPG        NNNNNNNN
00000042QPQ3564MG03002883QQ74550233720191216110935RODOVIA BR-232 KM 113,08 - ENCRUZILHADA DE SAO JOAO                                                 117200060070DERPE4413 000000000000                                          000000000000096660201911260634430         DEV D2R-PA     Perkons        LOMBADA   03002883.JPG        NNNNNNNN
00000043QDU5145MA03002885QQ74550233720191216074447RODOVIA BR 232 km 100,5 - BEZERROS                                                                  117200060070DERPE4426 000000000000                                          000000000000096660201911260634594         DEV D2R-PA     Perkons        LOMBADA   03002885.JPG        NNNNNNNN
00000044QLI5369AL03002886QQ74550235720191214121303ROD. PE 60 km 0,1 CABO DE SANTO AGOSTINHO - PE                                                      117200040054DERPE4687 000000000000                                          000000000000096660201911120475027         DEV D2R-PA     Perkons        LOMBADA   03002886.JPG        NNNNNNNN
00000045QTM1360SC03002887QQ74630262720191216080713RODOVIA BR-232 km 35,5 VITORIA S. ANTAO                                                             117200060080DERPE4431 000000000000                                          000000000000096660201911200734597         DEV DPA        Perkons        LOMBADA   03002887.JPG        NNNNNNNN
00000046QWR7706MG03002888QQ74630235720191214090545ROD. PE 60 km 0,1 CABO DE SANTO AGOSTINHO - PE                                                      117200040057DERPE4687 000000000000                                          000000000000096660201911120505027         DEV D2R-PA     Perkons        LOMBADA   03002888.JPG        NNNNNNNN
00000047POI8934CE03002889QQ74550233720191215154611RODOVIA BR-232 KM 113,08 - ENCRUZILHADA DE SAO JOAO                                                 117200060074DERPE4413 000000000000                                          000000000000096660201911260674430         DEV D2R-PA     Perkons        LOMBADA   03002889.JPG        NNNNNNNN
00000048QWS0614MG03002891QQ74630235720191215143950ROD. PE 60 km 0,1 CABO DE SANTO AGOSTINHO - PE                                                      117200040057DERPE4687 000000000000                                          000000000000096660201911120505027         DEV D2R-PA     Perkons        LOMBADA   03002891.JPG        NNNNNNNN
00000049QFX6775PB03002893QQ74710235720191215153220ROD. PE 60 km 0,1 CABO DE SANTO AGOSTINHO - PE                                                      117200040073DERPE4687 000000000000                                          000000000000096660201911120665027         DEV D2R-PA     Perkons        LOMBADA   03002893.JPG        NNNNNNNN
00000050NWF8527GO03002894QQ74710235720191214091907ROD. PE 60 km 0,1 CABO DE SANTO AGOSTINHO - PE                                                      117200040076DERPE4687 000000000000                                          000000000000096660201911120695027         DEV D2R-PA     Perkons        LOMBADA   03002894.JPG        NNNNNNNN
00000051PLF9363BA03002897QQ74550233720191213130010RODOVIA BR-232 KM 113,08 - ENCRUZILHADA DE SAO JOAO                                                 117200060070DERPE4413 000000000000                                          000000000000096660201911260634430         DEV D2R-PA     Perkons        LOMBADA   03002897.JPG        NNNNNNNN
00000052FCH1428SP03002898QQ74550233720191214111901RODOVIA BR-232 KM 113,08 - ENCRUZILHADA DE SAO JOAO                                                 117200060068DERPE4413 000000000000                                          000000000000096660201911260614430         DEV D2R-PA     Perkons        LOMBADA   03002898.JPG        NNNNNNNN
00000053JRO4073BA03002899QQ74550235720191216055603ROD. PE 60 km 0,1 CABO DE SANTO AGOSTINHO - PE                                                      117200040049DERPE4687 000000000000                                          000000000000096660201911120425027         DEV D2R-PA     Perkons        LOMBADA   03002899.JPG        NNNNNNNN
00000054NOA7738RN03002902QQ74550253920191215143326RODOVIA BR 232, km 91                                                                               117200060071DERPE5365 000000000000                                          00000000000009666020191127064L06340       DEV D2R-PA     Perkons        LOMBADA   03002902.JPG        NNNNNNNN
00000055NQG1063PB03002903QQ74550233720191214171252RODOVIA BR 232 km 100,5 - BEZERROS                                                                  117200060069DERPE4426 000000000000                                          000000000000096660201911260624594         DEV D2R-PA     Perkons        LOMBADA   03002903.JPG        NNNNNNNN
00000056QON5304MG03002905QQ74710235720191214151827ROD. PE 60 km 0,1 CABO DE SANTO AGOSTINHO - PE                                                      117200040071DERPE4687 000000000000                                          000000000000096660201911120645027         DEV D2R-PA     Perkons        LOMBADA   03002905.JPG        NNNNNNNN
00000057OKY2362BA03002906QQ74550235720191215111027ROD. PE 60 km 0,1 CABO DE SANTO AGOSTINHO - PE                                                      117200040050DERPE4687 000000000000                                          000000000000096660201911120435027         DEV D2R-PA     Perkons        LOMBADA   03002906.JPG        NNNNNNNN
00000058OES8611SE03002907QQ74550055820191213101443ROD. PE 60 km 64 EM FRENTE AO INST. CHICO MENDES                                                    117200060078DERPE4406 000000000000                                          000000000000096660201911130714309         DEV D2R-PA     Perkons        LOMBADA   03002907.JPG        NNNNNNNN
00000059GYW9474MG03002908QQ74550233720191214075603RODOVIA BR 232 km 100,5 - BEZERROS                                                                  117200060073DERPE4426 000000000000                                          000000000000096660201911260664594         DEV D2R-PA     Perkons        LOMBADA   03002908.JPG        NNNNNNNN
00000060NNK4884RN03002909QQ74550235720191213095623ROD. PE 60 km 0,1 CABO DE SANTO AGOSTINHO - PE                                                      117200040050DERPE4687 000000000000                                          000000000000096660201911120435027         DEV D2R-PA     Perkons        LOMBADA   03002909.JPG        NNNNNNNN
00000061QLK9289AL03002910QQ74550233720191213131736RODOVIA BR-232 KM 113,08 - ENCRUZILHADA DE SAO JOAO                                                 117200060070DERPE4413 000000000000                                          000000000000096660201911260634430         DEV D2R-PA     Perkons        LOMBADA   03002910.JPG        NNNNNNNN
00000062QUL7285MG03002911QQ74630253920191211153039RODOVIA BR 232, km 91                                                                               117200060086DERPE5365 000000000000                                          00000000000009666020191127079L06340       DEV D2R-PA     Perkons        LOMBADA   03002911.JPG        NNNNNNNN
00000063JRD3556BA03002913QQ74710253920191213114329RODOVIA BR 232, km 91                                                                               117200060098DERPE5365 000000000000                                          00000000000009666020191127091L06340       DEV D2R-PA     Perkons        LOMBADA   03002913.JPG        NNNNNNNN
00000064OFF1411PB03002915QQ74710235720191215100758ROD. PE 60 km 0,1 CABO DE SANTO AGOSTINHO - PE                                                      117200040068DERPE4687 000000000000                                          000000000000096660201911120615027         DEV D2R-PA     Perkons        LOMBADA   03002915.JPG        NNNNNNNN
00000065FCQ0602SP03002918QQ74630233720191216123940RODOVIA BR 232 km 100,5 - BEZERROS                                                                  117200060092DERPE4426 000000000000                                          000000000000096660201911260854594         DEV D2R-PA     Perkons        LOMBADA   03002918.JPG        NNNNNNNN
00000066QPN9375MG03002919QQ74550253920191214113647RODOVIA BR 232, km 91                                                                               117200060069DERPE5365 000000000000                                          00000000000009666020191127062L06340       DEV D2R-PA     Perkons        LOMBADA   03002919.JPG        NNNNNNNN
00000067PDA7007CE03002920QQ74550235720191213082745RODOVIA PE-60 km 8,42 - CABO DE S. AGOSTINHO                                                        117200060077DERPE4403 000000000000                                          000000000000096660201911060704428         DEV D2R-PA     Perkons        LOMBADA   03002920.JPG        NNNNNNNN
00000068IWU5E77BA03002922QQ74630235720191213135002ROD. PE 60 km 0,1 CABO DE SANTO AGOSTINHO - PE                                                      117200040057DERPE4687 000000000000                                          000000000000096660201911120505027         DEV D2R-PA     Perkons        LOMBADA   03002922.JPG        NNNNNNNN
00000069QFV1905PB03002923QQ74550253920191213063058RODOVIA BR 232, km 91                                                                               117200060079DERPE5365 000000000000                                          00000000000009666020191127072L06340       DEV D2R-PA     Perkons        LOMBADA   03002923.JPG        NNNNNNNN
00000070IVR5021RS03002925QQ74550235720191216113444ROD. PE 60 km 0,1 CABO DE SANTO AGOSTINHO - PE                                                      117200040055DERPE4687 000000000000                                          000000000000096660201911120485027         DEV D2R-PA     Perkons        LOMBADA   03002925.JPG        NNNNNNNN
00000071LTL4796SP03002927QQ74550253920191213152957RODOVIA BR 232, km 91                                                                               117200060078DERPE5365 000000000000                                          00000000000009666020191127071L06340       DEV D2R-PA     Perkons        LOMBADA   03002927.JPG        NNNNNNNN
00000072DPB8465SP03002928QQ74550233720191216075944RODOVIA BR-232 KM 113,08 - ENCRUZILHADA DE SAO JOAO                                                 117200060072DERPE4413 000000000000                                          000000000000096660201911260654430         DEV D2R-PA     Perkons        LOMBADA   03002928.JPG        NNNNNNNN
00000073ORJ8143AL03002929QQ74550253920191213155024RODOVIA BR 232, km 91                                                                               117200060069DERPE5365 000000000000                                          00000000000009666020191127062L06340       DEV D2R-PA     Perkons        LOMBADA   03002929.JPG        NNNNNNNN
00000074OWD8826RN03002930QQ74550253920191214124005RODOVIA BR 232, km 91                                                                               117200060068DERPE5365 000000000000                                          00000000000009666020191127061L06340       DEV D2R-PA     Perkons        LOMBADA   03002930.JPG        NNNNNNNN
00000075QOZ2097MG03002931QQ74550235720191213200600ROD. PE 60 km 0,1 CABO DE SANTO AGOSTINHO - PE                                                      117200040049DERPE4687 000000000000                                          000000000000096660201911120425027         DEV D2R-PA     Perkons        LOMBADA   03002931.JPG        NNNNNNNN
00000076QKK2661TO03002933QQ74550235720191214101337ROD. PE 60 km 0,1 CABO DE SANTO AGOSTINHO - PE                                                      117200040048DERPE4687 000000000000                                          000000000000096660201911120415027         DEV D2R-PA     Perkons        LOMBADA   03002933.JPG        NNNNNNNN
00000077QTK6300SC03002934QQ74630262720191216080708RODOVIA BR-232 km 35,5 VITORIA S. ANTAO                                                             117200060081DERPE4431 000000000000                                          000000000000096660201911200744597         DEV DPA        Perkons        LOMBADA   03002934.JPG        NNNNNNNN
00000078QUB4032MG03002935QQ74550235720191215183612ROD. PE 60 km 0,1 CABO DE SANTO AGOSTINHO - PE                                                      117200040052DERPE4687 000000000000                                          000000000000096660201911120455027         DEV D2R-PA     Perkons        LOMBADA   03002935.JPG        NNNNNNNN
00000079EWU2E17BA03002936QQ74550262720191216070146RODOVIA BR-232 km 35,5 VITORIA S. ANTAO                                                             117200060075DERPE4431 000000000000                                          000000000000096660201911200684597         DEV DPA        Perkons        LOMBADA   03002936.JPG        NNNNNNNN
00000080QPK0026MG03002938QQ74550235720191215162809ROD. PE 60 km 0,1 CABO DE SANTO AGOSTINHO - PE                                                      117200040050DERPE4687 000000000000                                          000000000000096660201911120435027         DEV D2R-PA     Perkons        LOMBADA   03002938.JPG        NNNNNNNN
00000081OSG4478CE03002940QQ74550253920191214142121RODOVIA BR 232, km 91                                                                               117200060071DERPE5365 000000000000                                          00000000000009666020191127064L06340       DEV D2R-PA     Perkons        LOMBADA   03002940.JPG        NNNNNNNN
00000082ORM9872AL03002941QQ74630253920191214112959RODOVIA BR 232, km 91                                                                               117200060094DERPE5365 000000000000                                          00000000000009666020191127087L06340       DEV D2R-PA     Perkons        LOMBADA   03002941.JPG        NNNNNNNN
00000083OEV8191PB03002942QQ74630251320191214122920RODOVIA PE-15 km 6,20                                                                               117200060083DERPE4450 000000000000                                          000000000000096660201911200764699         DEV D2R-PA     Perkons        LOMBADA   03002942.JPG        NNNNNNNN
00000084OZB7055SE03002943QQ74550253920191214124132RODOVIA BR 232, km 91                                                                               117200060068DERPE5365 000000000000                                          00000000000009666020191127061L06340       DEV D2R-PA     Perkons        LOMBADA   03002943.JPG        NNNNNNNN
00000085QFK0649PB03002945QQ74710253920191211145101RODOVIA BR 232, km 91                                                                               117200060105DERPE5365 000000000000                                          00000000000009666020191127098L06340       DEV D2R-PA     Perkons        LOMBADA   03002945.JPG        NNNNNNNN
00000086ORJ2275AL03002946QQ74550233720191215071707RODOVIA BR-232 KM 113,08 - ENCRUZILHADA DE SAO JOAO                                                 117200060068DERPE4413 000000000000                                          000000000000096660201911260614430         DEV D2R-PA     Perkons        LOMBADA   03002946.JPG        NNNNNNNN
00000087EFI9768SP03002947QQ74550262720191216051014RODOVIA BR-232 km 35,5 VITORIA S. ANTAO                                                             117200060068DERPE4431 000000000000                                          000000000000096660201911200614597         DEV DPA        Perkons        LOMBADA   03002947.JPG        NNNNNNNN
00000088NQH5757PB03002948QQ74630253920191213150457RODOVIA BR 232, km 91                                                                               117200060087DERPE5365 000000000000                                          00000000000009666020191127080L06340       DEV D2R-PA     Perkons        LOMBADA   03002948.JPG        NNNNNNNN
00000089QPP8840MG03002949QQ74550235720191214092150ROD. PE 60 km 0,1 CABO DE SANTO AGOSTINHO - PE                                                      117200040053DERPE4687 000000000000                                          000000000000096660201911120465027         DEV D2R-PA     Perkons        LOMBADA   03002949.JPG        NNNNNNNN
00000090EHH9119SP03002950QQ74550233720191214062212RODOVIA BR 232 km 100,5 - BEZERROS                                                                  117200060077DERPE4426 000000000000                                          000000000000096660201911260704594         DEV D2R-PA     Perkons        LOMBADA   03002950.JPG        NNNNNNNN
00000091KIM2233CE03002951QQ74630233720191214065129RODOVIA BR 232 km 100,5 - BEZERROS                                                                  117200060082DERPE4426 000000000000                                          000000000000096660201911260754594         DEV D2R-PA     Perkons        LOMBADA   03002951.JPG        NNNNNNNN
00000092QUR1039MG03002952QQ74550253920191213073449RODOVIA BR 232, km 91                                                                               117200060070DERPE5365 000000000000                                          00000000000009666020191127063L06340       DEV D2R-PA     Perkons        LOMBADA   03002952.JPG        NNNNNNNN
00000093OZS7624BA03002953QQ74550262720191215152418RODOVIA BR-232 km 35,5 VITORIA S. ANTAO                                                             117200060068DERPE4431 000000000000                                          000000000000096660201911200614597         DEV DPA        Perkons        LOMBADA   03002953.JPG        NNNNNNNN
00000094QUA1808MG03002954QQ74550055820191213124706ROD. PE 60 km 64 EM FRENTE AO INST. CHICO MENDES                                                    117200060075DERPE4406 000000000000                                          000000000000096660201911130684309         DEV D2R-PA     Perkons        LOMBADA   03002954.JPG        NNNNNNNN
00000095BDJ6H70PR03002955QQ74550253920191215133259RODOVIA BR 232, km 91                                                                               117200060070DERPE5365 000000000000                                          00000000000009666020191127063L06340       DEV D2R-PA     Perkons        LOMBADA   03002955.JPG        NNNNNNNN
00000096DKR0197SP03002956QQ74550233720191214104846RODOVIA BR-232 km 113,4 - ENCRUZILHADA DE SAO JOAO                                                  117200060069DERPE4414 000000000000                                          000000000000096660201911260624431         DEV D2R-PA     Perkons        LOMBADA   03002956.JPG        NNNNNNNN
00000097QFD9000PB03002959QQ74550233720191213085617RODOVIA BR-232 KM 113,08 - ENCRUZILHADA DE SAO JOAO                                                 117200060068DERPE4413 000000000000                                          000000000000096660201911260614430         DEV D2R-PA     Perkons        LOMBADA   03002959.JPG        NNNNNNNN
00000098PLE0239SE03002960QQ74550233720191213143247RODOVIA BR-232 KM 113,08 - ENCRUZILHADA DE SAO JOAO                                                 117200060072DERPE4413 000000000000                                          000000000000096660201911260654430         DEV D2R-PA     Perkons        LOMBADA   03002960.JPG        NNNNNNNN
00000099PLL7E42BA03002961QQ74550253920191214064409RODOVIA BR 232, km 91                                                                               117200060076DERPE5365 000000000000                                          00000000000009666020191127069L06340       DEV D2R-PA     Perkons        LOMBADA   03002961.JPG        NNNNNNNN
00000100PBL9464AL03002962QQ74630233720191214135932RODOVIA BR 232 km 100,5 - BEZERROS                                                                  117200060085DERPE4426 000000000000                                          000000000000096660201911260784594         DEV D2R-PA     Perkons        LOMBADA   03002962.JPG        NNNNNNNN
00000101OZX0H18BA03002964QQ74550252520191213160116RODOVIA BR-232 km 58,9 POMBOS                                                                       117200060069DERPE4429 000000000000                                          000000000000096660201911270624656         DEV D2R-PA     Perkons        LOMBADA   03002964.JPG        NNNNNNNN
00000102QPQ6575MG03002965QQ74550253920191213103454RODOVIA BR 232, km 91                                                                               117200060070DERPE5365 000000000000                                          00000000000009666020191127063L06340       DEV D2R-PA     Perkons        LOMBADA   03002965.JPG        NNNNNNNN
00000103QPM9152MG03002966QQ74550242720191213141553RODOVIA BR 232 km 77,1                                                                              117200060077DERPE4924 000000000000                                          00000000000009666020191127070L06214       DEV D2R-PA     Perkons        LOMBADA   03002966.JPG        NNNNNNNN
00000104QJX4660SC03002969QQ74630262720191216080655RODOVIA BR-232 km 35,5 VITORIA S. ANTAO                                                             117200060080DERPE4431 000000000000                                          000000000000096660201911200734597         DEV DPA        Perkons        LOMBADA   03002969.JPG        NNNNNNNN
00000105QSL2F87PB03002971QQ74550235720191213180442ROD. PE 60 km 0,1 CABO DE SANTO AGOSTINHO - PE                                                      117200040048DERPE4687 000000000000                                          000000000000096660201911120415027         DEV D2R-PA     Perkons        LOMBADA   03002971.JPG        NNNNNNNN
00000106OGE2849PB03002972QQ74550233720191213124801RODOVIA BR-232 KM 113,08 - ENCRUZILHADA DE SAO JOAO                                                 117200060075DERPE4413 000000000000                                          000000000000096660201911260684430         DEV D2R-PA     Perkons        LOMBADA   03002972.JPG        NNNNNNNN
00000107AYO3184SP03002973QQ74630233720191213140718RODOVIA BR-232 KM 113,08 - ENCRUZILHADA DE SAO JOAO                                                 117200060080DERPE4413 000000000000                                          000000000000096660201911260734430         DEV D2R-PA     Perkons        LOMBADA   03002973.JPG        NNNNNNNN
00000108OYX3326PB03002975QQ74550253920191213094627RODOVIA BR 232, km 91                                                                               117200060070DERPE5365 000000000000                                          00000000000009666020191127063L06340       DEV D2R-PA     Perkons        LOMBADA   03002975.JPG        NNNNNNNN
00000109EJY5364GO03002976QQ74550252520191213160348RODOVIA BR-232 km 58,9 POMBOS                                                                       117200060072DERPE4429 000000000000                                          000000000000096660201911270654656         DEV D2R-PA     Perkons        LOMBADA   03002976.JPG        NNNNNNNN
00000110QGV1504RN03002977QQ74630253920191215084419RODOVIA BR 232, km 91                                                                               117200060092DERPE5365 000000000000                                          00000000000009666020191127085L06340       DEV D2R-PA     Perkons        LOMBADA   03002977.JPG        NNNNNNNN